:020000040800F2
:100000000000022075A7000871A7000871A700086A
:1000100071A7000871A7000871A700080000000080
:1000200000000000000000000000000071A70008B0
:1000300071A700080000000071A7000871A7000860
:1000400071A7000871A7000871A7000871A7000830
:1000500071A7000871A7000871A7000871A7000820
:1000600071A7000871A7000871A7000871A7000810
:1000700071A7000871A7000871A7000871A7000800
:1000800071A7000871A7000871A7000871A70008F0
:1000900071A7000871A7000871A7000871A70008E0
:1000A00071A7000871A7000871A7000871A70008D0
:1000B0002906000871A7000871A7000871A70008A9
:1000C00071A7000871A7000871A7000871A70008B0
:1000D00071A700088D76000871A7000871A70008B5
:1000E00071A7000871A7000871A7000871A7000890
:1000F00071A7000871A7000871A7000871A7000880
:1001000071A7000871A7000871A7000871A700086F
:1001100071A700086179000871A7000871A700089D
:1001200071A7000871A7000871A7000871A700084F
:1001300071A7000871A7000871A7000871A700083F
:1001400071A7000871A7000871A7000871A700082F
:1001500071A7000871A7000871A7000871A700081F
:1001600071A7000871A7000871A7000871A700080F
:1001700071A7000871A7000871A7000871A70008FF
:1001800071A7000871A7000808B50548054B1B1AA0
:10019000062B00D808BD044B002BFBD09847F9E78D
:1001A0009C0600209F0600200000000008B50748BC
:1001B000074B1B1A9B1003EBD373591000D108BDDA
:1001C000044A002AFBD09047F9E700BF9C060020B4
:1001D0009C0600200000000010B5064C237843B9AF
:1001E000FFF7D2FF044B13B10448AFF300800123A3
:1001F000237010BD9C06002000000000F8F70008E6
:1002000008B5074B1BB107480749AFF30080074803
:10021000036813B1064B03B19847BDE80840C5E732
:1002200000000000F8F70008A00600209806002053
:1002300000000000134B002B08BF114B9D46A3F597
:10024000803A00218B460F461148124A121A0AF0D2
:10025000FEFF0D4B002B00D098470C4B002B00D01D
:1002600098470020002104000D000B480AF07FFF92
:100270000AF0AEFF2000290004F08AFA0AF07EFF9F
:100280000000080000000000000000000000000066
:100290009C06002030B40020A5B1000838B54FF40A
:1002A000B971044604F0C1FB0C2204F110000021D6
:1002B0000AF0CDFF04F11C0500220023AB520232EC
:1002C000202AFAD104F13C020021D1540133B3F5C4
:1002D000966FF9D1F023C4F8F034A4F8EC14A4F824
:1002E000EE14284620220AF0B2FF052323740923C6
:1002F0006382024B6361A561204638BD0400002083
:10030000222A70B505460E460DD104F0A0FB202828
:100310000BD90024331928465978013404F0D9FB4D
:10032000212CF7D103E0042070BD052070BD002012
:1003300070BD000010B500238EB001F0C004802C09
:1003400002AA08D0C02C03D044B94FF63A6407E0A3
:1003500040F2525404E04FF4E37401E04FF6AE244F
:10036000D45202338900082BC9B2E6D111461030AD
:1003700004AA04230AF064FA00230093034802212C
:1003800004AA142303F0D6F80EB010BDA80A00206A
:1003900038B5B0F8EC54044645B904F07AFB48BBD4
:1003A00004E0A4F8EC240023A4F8EE34B4F8EC3410
:1003B000002B44D0224803F017F90546142D18D914
:1003C000B4F8EE345A1C2344A4F8EE2493F83C10FD
:1003D0002046FFF7AFFFB4F8EE24B4F8EC34143D38
:1003E0009A42ADB2EAD30023A4F8EE34A4F8EC3478
:1003F00038BD38BD134B1B78ABB1204604F08FFBE2
:1004000063190135212D83F83C00F6D100230E49F4
:10041000E218595C82F85D100133272BF7D148238D
:10042000A4F8EC34BFE7D4F8F024591C9BB29342F3
:10043000B7D223445F2083F83C000B46F5E738BD74
:10044000A80A00206C670020ACB7000808B504F0CB
:10045000FEFA2323B0FBF3F0C0B208BD4FF41673CD
:100460000C2202FB0131B1F5966F8ABF4FF49663FF
:10047000C0F8F014C0F8F03470470000F7B502255A
:10048000454E684608F08CFA0027284601210124D1
:100490008DF805508DF806708DF8075008F078FD3E
:1004A0004FF480533046694600938DF8044008F0BD
:1004B00037FA2846214608F06BFD1023304669467E
:1004C00000938DF8044008F02BFA2846214608F0E6
:1004D0005FFD08233046694600938DF8044008F01C
:1004E0001FFA2846214608F053FD4FF400533046CA
:1004F000694600938DF8047008F012FA28462146E8
:1005000008F046FD40233046694600938DF80440CC
:1005100008F006FA2846214608F03AFD2023304626
:10052000694600938DF8044008F0FAF92846214600
:1005300008F02EFD80233046694600938DF8044074
:1005400008F0EEF92846214608F022FD4FF48073AA
:100550003046694600938DF8044008F0E1F92846DA
:10056000214608F015FD4FF40073304669460093AC
:100570008DF8044008F0D4F92146042008F008FD65
:100580004FF480630548009369468DF8044008F0F5
:10059000C7F903B0F0BD00BF0004024000080240EC
:1005A00037B502A94FF4006321F8023D00250DF193
:1005B0000502044618308DF8055006F0E6FD284681
:1005C000BDF8061008F09EFA1548022109F0C9FF8F
:1005D00010B9ADF8060007E0114809F019FFADF8B1
:1005E0000600104809F014FF054602210C4809F0E6
:1005F000BEFF0B4809F0E0FEBDF806109DF805208F
:10060000201D06F09BFD04F12C00294605F083FB1C
:10061000D4F828330133C4F8283303B030BD00BF09
:10062000002001400021014008B54FF08040012129
:1006300009F023FD48B14FF08040012109F028FD69
:100640000248BDE80840FFF7ABBF08BDA80A00207C
:100650002DE9F041714894B0022109F082FF10B1F8
:100660006F48FFF79DFF01A808F09AF906A809F066
:1006700023FE0EA809F002FE0220012108F088FCEA
:100680004FF4807001210024012508F0B1FC0326FD
:1006900001A9644801958DF808608DF80B4008F0B9
:1006A0003FF92946022008F073FC29464FF40070F8
:1006B00008F09EFC4FF0020801A95A48CDF80480CA
:1006C0008DF808608DF80B4008F02AF9062306A87B
:1006D000069307940894099409F0DAFD0EA94F488F
:1006E0000E948DF83C408DF83D4010941194129476
:1006F0008DF84C5009F09CFD2946484809F065FEEC
:100700002A4623464548082109F00EFE294643485B
:1007100009F0D8FD0EA9444809F08AFD294642484F
:1007200009F053FE23462A463F48092109F0FCFD03
:1007300029463D4809F0C6FD01A808F031F90AA88C
:1007400008F0A0F92846294608F022FC29464FF077
:10075000005008F041FC102701A9344801978DF89A
:1007600008608DF80B4008F0DBF820460AA90A94CF
:100770000B940D9408F070F92046294608F088F98A
:100780002846294608F028FC2A4628480F2108F068
:1007900043F94FF4004301A9244801938DF80880E0
:1007A00008F0BEF803A809F0CBF8F92303A94FF02D
:1007B0008040ADF80C300495ADF80E40ADF8144013
:1007C0008DF8164009F07EF82346224621464FF068
:1007D000804009F0E8FC29464FF0804009F007F915
:1007E0002A4629464FF0804009F032FC1C23684617
:1007F0008DF800308DF801408DF802508DF80350CF
:1008000008F036FD3946074808F0F9F80548082190
:1008100008F0F3F814B0BDE8F08100BF00200140FB
:10082000A80A00200004024000210140000002400C
:1008300008B54FF40051034808F0CDF8431E584264
:10084000584108BD000402400A460248082108F049
:10085000D8B800BF000402400A4602484FF4805155
:1008600008F0CFB8000402400A460248102108F000
:10087000C8B800BF000402400A460248402108F000
:10088000C0B800BF000402400A460248202108F018
:10089000B8B800BF000402400A460248802108F0B0
:1008A000B0B800BF000402400A4602484FF480710D
:1008B00008F0A7B8000402400A4602484FF400714D
:1008C00008F09FB8000402400A4602484FF48061D5
:1008D00008F097B800080240064B1A6840F6B83393
:1008E000B2FBF3F221B11346013BFDD10139F9E727
:1008F000704700BF2C06002038B54FF47A610446DB
:1009000004F093F8002222826261A26104F11C05C6
:100910000023AB520232B2F5AA7FF9D104F5B872C6
:100920000021D1540133C82BFAD14823A4F83C321A
:10093000A4F83812A4F83A1228464FF4AA720AF022
:1009400086FC06232382024B6561A361204638BDE5
:100950005E00002008B5B0F8383213B904F099F8F9
:1009600000B1012008BD442A70B506460D460CD1E1
:1009700004F06DF843280AD90024295D304601347B
:1009800004F0A7F8442CF8D103E0042070BD052042
:1009900070BD002070BD00002DE9F041ADF5227D55
:1009A00002AC07460D460DF5A47826462B062046D8
:1009B0004CBF0E490E49282228340AF03FFC6D0036
:1009C0004445EDB2F2D107F1100031462246A02392
:1009D0000AF032F900230093064806212246A0239C
:1009E00002F0A8FD0DF5227DBDE8F081FCB70008FE
:1009F000D4B70008A80A002038B5044604F049F826
:100A0000B4F8383208B903B938BD2BBB244A127880
:100A10007AB9B4F83C129AB28A421AD2B4F838229F
:100A2000501C2244A4F83802AA2082F87001013335
:100A3000F1E74425204604F072F8B4F83832013D5D
:100A40005A1C234415F0FF05A4F8382283F87001DE
:100A5000F0D10023A4F83A32B4F83832FBB111488F
:100A600002F0C2FD0546A02D18D9B4F83A325A1C3E
:100A70002344A4F83A2293F870112046FFF78CFF24
:100A8000B4F83A22B4F83832A03D9A42ADB2EAD373
:100A90000023A4F83A32A4F8383238BD38BD38BD46
:100AA0006C670020A80A002001EB41014908483189
:100AB00096298ABF9623A0F83C12A0F83C327047D2
:100AC00008B503F0C4FF4423B0FBF3F0C0B208BD87
:100AD00000220270428070471FB50446994803F017
:100AE00015FB2378002B00F02A81964803F0CBFBFE
:100AF000042840F224810023934A01A99A5C5A54A5
:100B000001330C2BF8D162881523B2FBF3F003FB01
:100B100010239BB2002B00F0E080012A04D1302387
:100B20008DF80D3002239EE0022A01D1342397E094
:100B3000032A04D131238DF80D306F2393E0042A6A
:100B400007D11F238DF80D302B238DF80E30F6239F
:100B5000C1E0052A04D132238DF80D3022238EE026
:100B6000062A07D124238DF80D302A238DF80E3064
:100B7000E023B0E0072A04D133238DF80D303B2366
:100B80007DE0082A77D0012B07D125238DF80D3081
:100B90004F238DF80E3093239DE0022B07D1702355
:100BA0008DF80D300B238DF80E30DA2393E0032BF4
:100BB00001D1252310E0042B04D133238DF80D300F
:100BC0001B235CE0052B04D125238DF80D306F230A
:100BD0003DE0062B04D139238DF80D301D235AE05A
:100BE000072B07D125238DF80D300C238DF80E30FF
:100BF000C72370E0082B04D150238DF80D306F23EC
:100C000007E0092A77D0092B07D125238DF80D306D
:100C10001E238DF80E30D0235DE00A2A6ED00A2BF9
:100C200007D121238DF80D300C238DF80E30C2230F
:100C300051E00B2A65D00B2B01D125231CE00C2A97
:100C400062D00C2B07D13D238DF80D3002238DF897
:100C50000E30D7233FE00D2A59D00D2B07D1252385
:100C60008DF80D3019238DF80E30DE2333E00E2A77
:100C700050D00E2B07D150238DF80D306F238DF8F7
:100C80000E30B32327E00F2A56D00F2B07D1252390
:100C90008DF80D301B238DF80E30D6231BE0102A63
:100CA0000BD0102B07D123238DF80D301B238DF88B
:100CB0000E303A230FE0112A06D0112B04D1212344
:100CC0008DF80D30252303E016238DF80D302923F0
:100CD0008DF80E30F5238DF80F300C22194803F0F3
:100CE000E3F8628840F276230132B2FBF3F103FBB2
:100CF0001123638023E00A2B0FD192E70B2B0FD136
:100D00009BE70C2B0FD19EE70D2B0FD1A7E70E2BE6
:100D10000FD1B0E70F2B0FD1B9E70B2B91D18CE797
:100D20000C2B9AD18FE70D2BA3D198E70E2BACD1CA
:100D3000A1E70F2BB5D1AAE7102BBED1B3E704B0C2
:100D400010BD00BF641300204DB80008012A38B55B
:100D5000044614D10D786B1E5D425D4103783DB1B0
:100D600053B9438007490848292203F077F803E084
:100D700013B1054803F0BEF82570002038BD0420EB
:100D800038BD00BF24B800086413002010B500224D
:100D900004460023A3540132B2F5807FF9D184F8D0
:100DA000003184F8013184F8023104F582704FF487
:100DB000B97103F03AFE204610BD1FB570228DF8C0
:100DC0000E2082788DF80F20E02300228DF80C3061
:100DD00000920423012103AA8DF80D3006F0FBFEDA
:100DE00005B05DF804FB1FB57F228DF80A208278DC
:100DF0008DF80B20E02300228DF808308DF80C10C0
:100E000005230092012102AA8DF8093006F0E3FEC5
:100E100005B05DF804FB00002DE9F047044688B0FA
:100E2000744802F090FE00228DF80F20724AE023F1
:100E30008DF80C3011780D238DF80D3001238DF8CD
:100E40000E30924609B18DF80F306C4B1A789946E6
:100E50002AB19DF80F3043F002038DF80F30684B34
:100E60001A7898462AB19DF80F3043F004038DF8A4
:100E70000F30644F3B782BB19DF80F3043F00803DF
:100E80008DF80F30604E33782BB19DF80F3043F062
:100E900010038DF80F305D4B1A781D462AB19DF86E
:100EA0000F3043F020038DF80F30594B51481B7819
:100EB0008DF81030574B0DF10A011B788DF8113069
:100EC0000DF10B0202F027FE9DF80A302BB19DF8C0
:100ED000113043F002038DF81130464802F030FE25
:100EE00028B19DF8113043F004038DF811304148CA
:100EF00002F023FE28B19DF8113043F008038DF86D
:100F000011303C4802F026FE28B19DF8113043F024
:100F100010038DF811309DF80B302BB19DF8113076
:100F200043F020038DF811303B4A9DF811301278C0
:100F3000002A0CBF0022402213438DF811309AF88A
:100F400000302BB1354803F09EF98DF8120001E016
:100F50008DF8123099F80030A3B1314B1B7843B1B2
:100F6000304801F0A9FE8DF813002E4801F0ACFEC8
:100F700005E00A232C488DF81330FFF767FA8DF847
:100F8000140003E08DF813308DF8143098F8003019
:100F90002BB1264802F01FFF8DF8150001E08DF8F7
:100FA00015303B782BB1224804F0B5FA8DF81600C5
:100FB00001E08DF8163033782BB11E4806F0A9FAFF
:100FC0008DF8170001E08DF817302B782BB11A48F7
:100FD000FFF776FD8DF8180001E08DF8183000233A
:100FE00000932046012103AA0D2306F0F4FD08B06A
:100FF000BDE8F087A80A0020B4020020B302002058
:10100000B2020020B5020020B1020020B60200208A
:10101000103600206C670020113600206413002079
:10102000B00200201436002058A60020AC91002009
:1010300000370020D80D0020C433002010B5A8B020
:10104000E0238DF80830002201238DF80A208DF866
:101050000B30D1B2094C615C131DDBB2013221B1FE
:1010600028AC234403F8981CF3E7009102AA01215D
:101070008DF8093006F0AFFD28B010BD81BB000827
:101080002DE9F04F112A95B00C4601D80420D7E085
:101090000E78C6F3001380F802318D784B78322D2C
:1010A000F4D8E27803F0010AC3F34001C3F38008E7
:1010B000C3F3C00CC3F30010062AC3F340130A9312
:1010C0000AD9A2F16207012F17D9A2F15B07052FF8
:1010D00013D9652ADAD120E0012A03D1BAF1000F31
:1010E000D4D01AE0022A02D10029CFD015E0032A79
:1010F00003D1B8F1000FC9D00FE0042A03D1BCF12D
:10110000000FC3D009E0052A02D10028BED004E0B8
:10111000062A02D10A9B002BB8D027790B97A77912
:101120000F2FB3D894F80DE063790C93AEF1800ED5
:101130001FFA8EFECDF844E094F80EE0637A0D932A
:10114000AEF1800E1FFA8EFECDF848E0DFF840E1E8
:10115000A37A8EF800203C4A0E9382F800A03B4A06
:10116000E37A11703A4A0F9382F80080394A237B60
:1011700082F800C0384A10931070E37B374A13930B
:101180000A9B1370364B374894F8079094F810B0C8
:10119000647CF243C2F3C01229461A7003F064F86B
:1011A0003148294602F008FE3048294604F0A4F9E7
:1011B0002F482946FFF752F92E48294606F09AF99A
:1011C0002D482946FFF770FC39462C4801F0E4FE13
:1011D00039462B4805F0B8FD2948494605F0C0FDC1
:1011E0003946284804F0DEFF3946274803F022FA42
:1011F0001D48C6F3C0015A4602F0F5FD0B9F00974B
:101200000D9F02970F9F0C9B0497139F01930697C6
:101210000E9B119F0393109B05933BB2129F089363
:101220003BB209931948079406F00101C6F3400246
:10123000C6F3800302F01AFC144802F021FA0020E1
:1012400015B0BDE8F08F00BFB4020020B30200204B
:10125000B2020020B5020020B1020020B602002038
:10126000B002002064130020AC9100200037002061
:1012700058A60020D80D0020C433002014360020CA
:1012800008160020F07A0020783C0020A80A0020F0
:101290001036002010B5012104464FF4E13206F06B
:1012A0006FFC204603214FF41652BDE8104006F0B3
:1012B00067BC000030B5134B1B78012B91B01FD8D1
:1012C000114B1B78E3B1E0238DF80C3010238DF81F
:1012D0000E300024E3B2DD1C9342EDB206D210AB17
:1012E0001D440B5D05F8343C0134F3E7D31C0022A8
:1012F000DBB20092012103AA8DF80D3006F06BFCE1
:1013000011B030BD10360020B402002030B5134BB0
:101310001B78012B89B01FD8114B1B78E3B1E02358
:101320008DF80C3011238DF80E300024E3B2DD1C53
:101330009342EDB206D208AB1D440B5D05F8143C98
:101340000134F3E7D31C0022DBB20092012103AA8F
:101350008DF80D3006F03FFC09B030BD103600208E
:10136000B40200201FB50C4B1B78012B11D80B4B7E
:101370001B7873B11222E0238DF80E2000228DF825
:101380000C3000920323012103AA8DF80D3006F0E2
:1013900022FC05B05DF804FB10360020B4020020EA
:1013A0001FB50C4B1B78012B11D80B4B1B7873B15D
:1013B0001322E0238DF80E2000228DF80C300092CD
:1013C0000323012103AA8DF80D3006F004FC05B0BB
:1013D0005DF804FB10360020B402002030B5154C37
:1013E000247814F0FD048DB022D1134D2D78FDB179
:1013F00000290CBF18211A21E0258DF80A108DF85C
:1014000008502146CCB2E51C9C42EDB206D20CAC91
:101410002544545C05F8284C0131F3E700220333DE
:10142000DBB20092012102AA8DF8093006F0D3FB4D
:101430000DB030BD10360020B30200201FB50E4B9A
:101440001B7813F0FD0214D10C4B1B788BB10029D3
:101450004FF0E0030CBF19211B218DF80C308DF8E3
:101460000E1003230092012103AA8DF80D3006F01F
:10147000B2FB05B05DF804FB10360020B30200207B
:1014800030B5144B1B78032BA5B000D0FBB9124B21
:101490001B78E3B1E0238DF80C3020238DF80E305B
:1014A0000024E3B2DD1C9342EDB206D224AB1D440E
:1014B0000B5D05F8843C0134F3E7D31C0022DBB25A
:1014C0000092012103AA8DF80D3006F084FB25B0AF
:1014D00030BD00BF10360020B20200201FB50D4BFA
:1014E0001B78032B00D08BB90B4B1B7873B12122D7
:1014F000E0238DF80E2000228DF80C30009203239B
:10150000012103AA8DF80D3006F065FB05B05DF8EA
:1015100004FB00BF10360020B202002030B5134B90
:101520001C7814F0FB04A1B01ED1114B1B78DBB169
:10153000E0238DF8083030238DF80A30E3B2DD1C4B
:101540009342EDB206D220AB1D440B5D05F8783C0A
:101550000134F3E7D31C0022DBB20092012102AA7E
:101560008DF8093006F037FB21B030BD1036002071
:10157000B502002030B5134B1C7814F0FB04C3B047
:101580001ED1114B1B78DBB1E0238DF80C303123D9
:101590008DF80E30E3B2DD1C9342EDB206D242ABC1
:1015A0001D440B5D05F8FC3C0134F3E7D31C00221D
:1015B000DBB20092012103AA8DF80D3006F00BFB7F
:1015C00043B030BD10360020B50200201FB50C4BD3
:1015D0001B7813F0FB0210D10A4B1B786BB1E02390
:1015E00032218DF80C308DF80E100323009201216A
:1015F00003AA8DF80D3006F0EEFA05B05DF804FB95
:1016000010360020B502002030B5144B1B78052B96
:10161000A5B000D0FBB9124B1B78E3B1E0238DF8E5
:101620000C3040238DF80E300024E3B2DD1C9342D1
:10163000EDB206D224AB1D440B5D05F8843C0134A9
:10164000F3E7D31C0022DBB20092012103AA8DF83C
:101650000D3006F0C0FA25B030BD00BF10360020B6
:10166000B10200201FB50D4B1B78052B00D08BB9A4
:101670000B4B1B7873B14122E0238DF80E20002222
:101680008DF80C3000920323012103AA8DF80D3050
:1016900006F0A1FA05B05DF804FB00BF103600208B
:1016A000B102002030B5124B1B78632BA5B01CD1C2
:1016B000E0238DF80C3008238DF80E300024E3B2BF
:1016C000DD1C9342EDB206D224AB1D440B5D05F840
:1016D000843C0134F3E7D31C0022DBB200920121E9
:1016E00003AA8DF80D3006F076FA25B030BD00BFA4
:1016F0001036002030B5124B1B78602B8BB01CD1FC
:10170000E0238DF8083009238DF80A300024E3B275
:10171000DD1C9342EDB206D20AAB1D440B5D05F809
:10172000203C0134F3E7D31C0022DBB200920121FC
:1017300002AA8DF8093006F04EFA0BB030BD00BF9A
:101740001036002030B590F80231A5B0C3B1E023C7
:101750008DF80C30F1238DF80E300022D4B2D31C5A
:101760000C5DDBB2013224B124AD2B4403F8844C70
:10177000F4E70121009103AA8DF80D3006F02BFA51
:1017800025B030BD5C2910B50C4642D014D80429D0
:101790002AD009D8022921D023D8012941D138489B
:1017A0003849FFF7CFFF4DE0062923D01FD35B292F
:1017B00037D13348344931E0602921D005D85E293A
:1017C00021D023D92E48314928E0632915D0652935
:1017D00022D0622925D12A482D491FE028482D49C9
:1017E0001CE027482C4919E025482C4916E02448DC
:1017F0002B4913E022482B4910E021482A490DE0EB
:101800001F482A490AE01E48294907E01C4829497F
:1018100004E01B48284901E019482849FFF792FFD6
:1018200005E017482649FFF78DFF012C0AD025480F
:1018300000F0BFFC022C05D1234803F0C7FE042CA6
:1018400010D00AE0214802F046FD214804F0EFFAEA
:10185000204805F091FA032CEED11F4806F032FA29
:10186000052C02D01D4803F0B0F91D4806F0CAFF50
:101870001C4B1D481C70BDE8104001F0CBBE00BFE2
:10188000B032002069B80008A4B900081CB90008EB
:10189000E7B8000859B800087CB8000896B80008F6
:1018A000A6B80008B7B80008CAB8000801B900080F
:1018B00038B900085DB900087FB90008C7B9000849
:1018C000E4B900080C64002070670020783C002018
:1018D000F07A002008160020C8410020AC960020B5
:1018E000B806002010360020A80A002008B572B300
:1018F000184B09781B788B4227D006290AD9A1F109
:101900006203012B12D9A1F15B03052B0ED96529C6
:101910001DD118E0012901D10F4B12E0022901D19C
:101920000E4B0EE0032901D10D4B0AE0042901D131
:101930000C4B06E0052901D10B4B02E0062902D130
:101940000A4B1B781BB1FFF71DFF002008BD0420C8
:1019500008BD00BF10360020B4020020B3020020F2
:10196000B2020020B5020020B1020020B602002021
:1019700070B590F80231A4B01BB3E0238DF80C30A1
:10198000F2238DF80E300023DDB2DC1C4E5DE4B294
:1019900024AD0133254416B105F8846CF4E7131225
:1019A00005F8843C24A9A31C013451FA84F40121D4
:1019B00004F8842CDBB2009103AA8DF80D3006F0F8
:1019C0000AF924B070BD0000F0B5044685B0204689
:1019D000012106F0DFF80546002800F07582204658
:1019E000012106F0EEF894F800312BBBE0281ED15F
:1019F0000122207084F800211BE05D1C94F8012175
:101A0000E054EDB2AA4284F80051E0D1A0781A283F
:101A100000F02C8119D9312800F0F8813AD98028BA
:101A200051D049D99038012800F24982002384F826
:101A3000003184F80131CAE7012BDED10223607046
:101A400084F8010184F80031C1E7082856D00FD886
:101A500002283ED007D8C0B3012840F0308220468B
:101A6000FFF7DAF9E2E703283AD0042842D026E269
:101A7000112800F0B78006D80A2800F087801028C7
:101A800000F096801BE2132800F0C180182800F0B7
:101A9000D08014E21E2800F0428106D81C2800F0F5
:101AA0002C811D2800F0028109E2202800F07881B5
:101AB000302800F0908102E2402800F0BD815028DB
:101AC00000F0D581FBE10325ECE12046FFF7B6FAF3
:101AD000ACE79A1E2046E11CD2B2FFF7D1FA05E02E
:101AE0009A1E2046E11CD2B2FFF700FF014608B162
:101AF0002046E6E12046FFF760F997E7914E3278FD
:101B0000632A07D19A1E9048E11CD2B2FFF71EF952
:101B1000054600E002253378622B05D0A3F15E0272
:101B2000012A01D95C2B08D194F801218748033A96
:101B3000E11CD2B205F056FA054633785D2B08D188
:101B400094F801218248033AE11CD2B205F090FAE0
:101B5000054633785B2B08D194F801217D48033A80
:101B6000E11CD2B201F062FA05463378652B08D148
:101B700094F801217848033AE11CD2B203F0AEFB9D
:101B80000546002DB6D07548754989E06D4A127832
:101B900052B99A1E7348E11CD2B206F0C5FD054643
:101BA00000283FF443AF00E005256C486E4977E01C
:101BB0006E4A127892B1634E3278012A0ED89A1E7C
:101BC0006B48E11CD2B202F049F9054638B93378C6
:101BD000002B7FF42BAF2046012144E002255F4813
:101BE00064495DE0614A12786AB1564E3278012A42
:101BF00009D89A1E5E48E11CD2B202F055F905469A
:101C00000028E4D000E0022554485B4948E0574BE7
:101C10001B7853B14B4E3378012B06D8544802F051
:101C200069F905460028D2D000E002254B48534907
:101C300036E0534A1278002A2FD0424E327812F002
:101C4000FD0F2AD14F4A12783AB39A1E4E48E11C32
:101C5000D2B200F041FF054600BB3378002B7FF481
:101C6000E5AE20460221FFF78DFDDFE6444A1278FB
:101C70009AB1344E327812F0FD0F0ED1414A1078ED
:101C8000E11C9A1E20B1D2B23F4800F04FFFE2E7BC
:101C9000D2B23E48FEF734FBDDE702252F483C492F
:101CA0002AB2FFF765FE204629460AE1344B1B782D
:101CB000002B00F03F81042D40F03E81E1780129A6
:101CC0000AD1204B1B78022B40F03781314B1B7817
:101CD000002B7FF4ABAE0CE0002940F02E81194BB5
:101CE0001B78022B40F029812A4B1B78002B3FF4F4
:101CF0009DAE254800F093FF98E6214A127852B134
:101D00009A1E2148E11CD2B200F03EFF0546002891
:101D10003FF48CAE00E0022510481F49C0E7184A86
:101D2000127852B19A1E1848E11CD2B200F060FF3E
:101D3000054600283FF47AAE00E00225074817491F
:101D4000AEE700BF1036002054A6002028A60020D1
:101D5000A89600206D670020A60A0020B03200205F
:101D6000F5B90008B806002017BA0008B402002030
:101D7000641300202ABA000849BA000866BA0008AD
:101D8000B3020020B00200201436002058A6002024
:101D900082BA00086C6700209CBA0008BABA000832
:101DA000694A12789AB1694E32780AB1032A0ED183
:101DB0009A1E6748E11CD2B201F00AFF054638B905
:101DC0003378002B7FF432AE204603214BE7022507
:101DD0006048614964E7614A12789AB15B4E327893
:101DE00012F0FB0F0ED19A1E5D48E11CD2B203F037
:101DF000CBFA054638B93378002B7FF417AE20466E
:101E0000042130E702255348564949E7534A1278DE
:101E100072B14E4E327812F0FB0F09D19A1E504823
:101E2000E11CD2B203F0B0FA05460028E3D000E08E
:101E3000022548484C4933E74C4A12789AB1434E40
:101E400032780AB1052A0ED19A1E4948E11CD2B255
:101E500005F092FA054638B93378002B7FF4E6ADE9
:101E600020460521FFE602253A48424918E7424A42
:101E700012789AB1354E32780AB1062A0ED19A1EDE
:101E80003E48E11CD2B2FEF76EFD054638B9337804
:101E9000002B7FF4CBAD20460621E4E602252D4839
:101EA0003749FDE694F80131AB427FF6BFAD615D85
:101EB00004F58270013502F00CFEEDB2F2E7204627
:101EC0000121FEF790FFB1E52E4801F040FE4BF6F0
:101ED0007F33984204F5827784BF84F8005184F8F8
:101EE0000151384602F0D5FD0546C8B12046032110
:101EF00005F05DFEA842B8BF85B20026B3B2AB4282
:101F00000ED2384602F00BFE04AA002302F8010D9F
:101F1000032100932046012305F05DFE0136EDE725
:101F20002046032105F036FE58B12046032105F076
:101F300048FEF5E7022500E00425064812492A4636
:101F4000AFE605B0F0BD00BFB202002010360020A1
:101F5000AC910020B0320020D5BA0008B5020020B4
:101F600000370020F9BA000815BB0008B1020020B4
:101F7000D80D00202EBB0008B6020020C43300207C
:101F800049BB0008A80A002066BB0008F0B51E4641
:101F900090F80231A5B073B3E0238DF80C30F32331
:101FA0008DF80E300025EBB2EC1CCF5CE4B224AB14
:101FB0000135234417B103F8847CF4E7111203F8C8
:101FC000841C24A9631C51FA83F303F8842CA31CFA
:101FD00051FA83F3321203F8842C231D033451FA8F
:101FE00084F4012104F8846CDBB2009103AA8DF81B
:101FF0000D3005F0F0FD25B0F0BDF0B590F80241D0
:10200000A5B0BDF9A860002C3CD0E0248DF80C40B0
:10201000F4248DF80E400025EFB2EC1C11F807E017
:10202000E4B224AF01352744BEF1000F02D007F817
:1020300084ECF1E7111207F8841C24AD611C55FAF9
:1020400081F101F8842CA21C55FA82F2191202F8CF
:10205000841CE21C55FA82F2012102F8843C231D03
:1020600055FA83F3321203F8842CA31D053455FA74
:1020700084F4DBB204F8846C03AA00918DF80D306F
:1020800005F0A9FD25B0F0BDF0B58C46A5B090F8DF
:102090000211BDF9A870BDF9AC60002948D0E0215B
:1020A0008DF80C10F5218DF80E100025E9B2EC1C0E
:1020B0001CF801E0E4B224A901352144BEF1000F6F
:1020C00002D001F884ECF1E7151201F8845C24AD2C
:1020D000611C55FA81F101F8842CA21C55FA82F298
:1020E000191202F8841CE21C55FA82F2012102F84E
:1020F000843C231D55FA83F33A1203F8842C631DA4
:1021000055FA83F3321203F8847CA31D55FA83F346
:1021100003F8842C04F10803073455FA84F4DBB285
:1021200004F8846C03AA00918DF80D3005F053FD7E
:1021300025B0F0BD0023036003714371836000F19B
:102140000C011A4600238B540132642AFAD103672A
:1021500043678367C367C0F88030C0F88430C0F835
:10216000883000F18C010022CA500433A82BFAD128
:1021700000F59A7100238B500432A82AFAD100F599
:10218000EE710022CA500433A82BFAD100F5217158
:1021900000238B500432A82AFAD100F54B7100229B
:1021A000CA5401332A2BFAD1C0F85823A0F85C2373
:1021B00070470023036003714371836003674367C3
:1021C000C0F85833A0F85C3370470000B0F85C23C7
:1021D00010B5044662B1D0F85803B0FBF2F2C2F376
:1021E000072081F8290081F82A2006482B2201E0E7
:1021F00004482922FFF75EF80023C4F85833A4F8F6
:102200005C3310BDB0320020B0F85C2310B504463A
:1022100052B1D0F85803B0FBF2F2C2F307200873B2
:102220004A7306480E2201E004480C22FFF76EF8BC
:102230000023C4F85833A4F85C3310BDB03200203A
:10224000836870B55B00044609B143F00103A360E5
:10225000A06820F07F432448584002F0E5FF0228A0
:1022600011D822482249FFF76DFA04F10C00002131
:10227000532208F0ECFF00232367C4F85833A4F876
:102280005C3301232DE0A06820F07F4319485840BB
:1022900002F0CAFF054628BB14481749FFF752FA57
:1022A0001648012101F0A4F904F10C06134801219C
:1022B00001F0ACF90C221249C4F85853A4F85C534D
:1022C000304608F0BBFF20463146FFF79DFF304601
:1022D00029460E2208F0BBFF4FF4165363672567AB
:1022E0000223637170BD00BF50765500B0320020EC
:1022F00071C1000868B4AA0093C10008A80A0020B0
:1023000004C4000882685200F8B504468260036F76
:10231000002900F0898042F001028260DA0803F0AF
:102320000700A118454D097B285C01432244013375
:10233000117343482367A368584002F075FF0128D2
:1023400011D840484049FFF7FDF94048002101F00D
:102350004FF93E48002101F059F93A48FFF720F8BB
:1023600000236371F8BD236F5C2B01D800260EE0BB
:10237000A06820F07F433648584002F055FF0228FD
:10238000F4D8602323674FF4165363670126236F45
:10239000602B16D1AEB90125A2686FF07F43EB40E8
:1023A0001A402B4B23FA05F0504002F03DFF022863
:1023B000EFB203D8236FDB1B236702E00135042D46
:1023C000EAD1656F013D656785B91E482149FFF770
:1023D000B9F91E48294601F00BF91C48294601F0BD
:1023E00015F91848FEF7BEFF6571F8BD236F602B25
:1023F00023D104F10C0556B1552363752D23A37524
:102400001623E37520462946FFF7FEFE04E00D483B
:1024100029460C22FEF77AFF284600210E2208F0FA
:1024200016FF00232367F8BDDA0803F00700A118A0
:10243000094D097B285C014078E7F8BDFCC1000824
:102440005E13AAAAB0320020B4C10008A80A002076
:1024500068B4AA00D4C1000869C100082DE9FF4191
:102460000D68C66F846F0F6906EB050CD0F88450B9
:10247000E2082F446745D4BF0097CDF800C0920012
:10248000BC4504F0070300EB020C07DA3A4F17F8DB
:102490000380DCF88C7007EA080706E0374F17F86E
:1024A0000380DCF88C7047EA0807CCF88C704F6822
:1024B0003E444F693D44B542D4BF01950196AE42BA
:1024C00000EB020505DA2C4EF75CD5F834613E408E
:1024D00004E02A4EF75CD5F834613E43C5F8346118
:1024E0008E68D0F880508F6905EB060CD0F88860B4
:1024F00037446745D4BF0297CDF808C0BC4500EB10
:10250000020C07DA1C4F17F80380DCF8DC7107EACD
:10251000080706E0194F17F80380DCF8DC7147EA7A
:102520000807CCF8DC71CF68C9693D443144A94241
:10253000D4BF039103958D42024405DA0E49C95C6C
:10254000D2F884320B4004E00C49C95CD2F88432E2
:102550000B43C2F88432009BC367019BC0F88030F4
:10256000029BC0F88430039BC0F888300134846734
:1025700004B0BDE8F08100BF59C1000861C1000886
:1025800070B591E80C0088B0991883F0010682F0CC
:1025900001052B4432440091741905916946019458
:1025A00002920393049406930792FFF757FF08B033
:1025B00070BD000070B5002340F24912194603298E
:1025C0004CD8DFE801F0020F1D3402F00704254D5E
:1025D0002D5DD41000EB8404D4F88C40254218BF44
:1025E00002211AE002F007011E4D6C5CD11000EBD5
:1025F0008101D1F834110C4214BF0221002122E0E4
:1026000002F00701174C645CD11000EB8101D1F896
:10261000DC110C4214BF0321012103F0070500EB7C
:10262000D304114E765D94F82C53354013E002F03C
:1026300007040C4D2E5DD41000EB8404D4F88442C2
:10264000264208BF012100EBD30403F00706AE5D6C
:1026500094F82C53354384F82C53013312F1FF3294
:10266000ADD270BD61C1000859C1000810B54FF06E
:10267000FF320023CC5C0E485440E4B2C2F3072280
:1026800030F8140001335040272B0246F2D1C043EA
:1026900091F82720C3B29A4207D191F82830C0F3AD
:1026A0000720C31A5842584110BD002010BD00BF7A
:1026B00004C20008F0B5002399B0044616467A4AD1
:1026C000985CCA5C4240CA540133532BF7D10023B3
:1026D00003A800221A540133542BF9D1734BD010A4
:1026E000085CC5070FD513F80E5C18AF3D4413F80E
:1026F0000D7C4FF0800E2EFA07F715F854EC47EAE0
:102700000E0705F8547C87070FD513F80C5C18AF3B
:102710003D4413F80B7C4FF0800E2EFA07F715F8A6
:1027200054EC47EA0E0705F8547C45070FD513F81B
:102730000A5C18AF3D4413F8097C4FF0800E2EFA66
:1027400007F715F854EC47EA0E0705F8547C07071D
:102750000FD513F8085C18AF3D4413F8077C4FF011
:10276000800E2EFA07F715F854EC47EA0E0705F825
:10277000547CB2F5247F0AD10023E367C4F880308B
:10278000C4F88430C4F88830A3671D4646E0C50607
:102790000FD513F8065C18AF3D4413F8057C4FF0D5
:1027A000800E2EFA07F715F854EC47EA0E0705F8E5
:1027B000547C87060FD513F8045C18AF3D4413F81A
:1027C000037C4FF0800E2EFA07F715F854EC47EA19
:1027D0000E0705F8547C45060FD513F8025C18AFB8
:1027E0003D4413F8017C4FF0800E2EFA07F715F8E0
:1027F00054EC47EA0E0705F8547C07060BD5187809
:1028000018AD28445D78802727FA05F510F8547C28
:102810003D4300F8545C0832103360E718AF07EB13
:10282000E50305F0070213F8543C8021D14019401C
:1028300018BF01210291402121FA02F2134018BF72
:102840000123204601A902350193FFF799FEB5F552
:10285000257FE3D12046FFF7ADFE00220023B354CD
:102860000132292AFAD1C3F5A472013202F007011C
:102870000F4804EBE202415C92F82C23114208D08D
:10288000DA08012003F0070100FA01F1B05C01430E
:10289000B1540133B3F5A57FE5D120463146FFF7AA
:1028A000E5FE19B0F0BD00BFFEC00008E4BB0008A3
:1028B00061C1000830B58268036F52008DB00446D4
:1028C0008260002934D042F001028260DA0803F00D
:1028D0000700A1181C4D097B285C014301332244E9
:1028E000B3F5257F117323672BD104F10C05204626
:1028F000294601AAFFF7DEFEC0B11448012100F00D
:1029000077FE1248012100F081FE204601A9FFF761
:102910005DFC284600210E2208F099FC0023236765
:10292000022363714FF4165363670AE0607108E095
:10293000DA0803F00700A118054D097B285C014067
:10294000CCE70DB030BD00BFFCC10008A80A0020D4
:1029500069C100082DE9F04104460F4690461E4625
:102960000025ABB2B3423CD238F81520D4F8583326
:102970001344C4F85833B4F85C330133A4F85C331F
:1029800037F815102379C90B8B4209D02368B3F5AA
:10299000004F2ABF6FF4CC7203F299139B18236087
:1029A0002368217103F54C503330B0F5803F01D2DC
:1029B000206014E0A3F54C406379CD38012B2060F2
:1029C0000AD005D3022B0AD12046FFF79BFC06E074
:1029D0002046FFF735FC02E02046FFF76BFF01358C
:1029E000BFE7BDE8F08100002DE9F0414FF4B97177
:1029F000044602F01AF84FF4B97104F1100002F025
:102A000014F80C2204F12000002108F020FC04F14D
:102A10002C0600220023B3520232202AFAD184F875
:102A20004C3004F14D010022CA540133212BFAD15C
:102A300084F86E2004F16F070023BB5401320C2A86
:102A4000FAD104F17B08002208F8032001330C2B93
:102A5000F9D104F1870100238B540132282AFAD1DD
:102A600004F1AF020025D5540133282BFAD12946B1
:102A7000A4F8D850A4F8DA50C4F8DC50C4F8E050F8
:102A8000C4F8E45084F8E85084F8E9503046202235
:102A900008F0DDFB052384F82030092363840C4B08
:102AA0006362A66240460B490C2208F0C7FB384619
:102AB00008490C2208F0C2FB84F8E85084F8E95079
:102AC000C4F8E050C4F8E4502046BDE8F08100BFEF
:102AD0006A00002054C40008222A70B504460E463D
:102AE0001CD101F0B4FF20281AD994F8E8302BB19A
:102AF000204601F0A7FF002384F8E8300025731971
:102B000020465978013501F0E4FF212DF7D1064B1D
:102B1000187838B9012384F84C3070BD042070BD9A
:102B2000052070BD002070BD6C670020222AF8B51A
:102B300004460F461FD100F11006304601F087FF12
:102B400020281AD994F8E9302BB1304601F07AFFE9
:102B5000002384F8E93000257B1930465978013587
:102B600001F0B7FF212DF7D1064B187838B90123B2
:102B700084F84C30F8BD0420F8BD0520F8BD0020D5
:102B8000F8BD00BF6C670020092A70B504460E46E8
:102B900027D17B3000210C2208F059FB0023124A78
:102BA00012489D5CD91003F00702715C825C1142EF
:102BB0004FEAE50205F0070505D0A118405D91F840
:102BC0007B10084305E0A118405D91F87B1021EAD5
:102BD000000022440133442B82F87B00DFD1002027
:102BE00070BD042070BD00BF10C4000881C400087F
:102BF000012A12D10B78012B08D0022B0DD1002312
:102C0000C0F8E43080F8E920184670470022C0F888
:102C1000E02080F8E8301046704704207047002319
:102C200080F84C10C0F8DC30C0F8E030C0F8E43078
:102C300080F8E83080F8E930704700290CBF0023A5
:102C4000052380F84C307047F0B5002395B0064658
:102C5000174601F0C005802D03AC08D0C02D03D06D
:102C600045B94FF63A6207E040F2525204E04FF4A1
:102C7000E37201E04FF6AE22E25202338900082BE4
:102C8000C9B2E6D105AD28460021142208F0DFFACA
:102C900006F1200021460AAA04238DF81E7007F0D1
:102CA000CFFD0095034802210AAA142300F042FC3C
:102CB00015B0F0BDA80A002008B501F0C8FE232316
:102CC000B0FBF3F0C0B208BD08B5103001F0BFFE94
:102CD0002323B0FBF3F0C0B208BDF8B500EB011739
:102CE000044638460D4601F0D4FE20281FD9D4F8FA
:102CF000DC30132B1BD905F1380354F82330052B96
:102D000015D925460026384601F009FF0136002373
:102D1000212E85F8AF0085F8873005F10105F2D145
:102D20002123A4F8D8300023A4F8DA30F8BD2544D4
:102D3000002285F8E820234693F84D1083F8AF1061
:102D400001320021212A83F8871003F10103F3D116
:102D5000E6E700001C4B1B78622B0ED102460023D5
:102D60005F21013382F8AF10212B4FF0000182F870
:102D7000871002F10102F3D120E05F2B20D103463E
:102D800000225521013283F8AF10072A4FF00001CD
:102D900083F8871003F10103F3D15F2380F8B63085
:102DA00002460823FF21013382F8B7100F2B4FF0A2
:102DB000000182F88F1002F10102F3D1A0F8D8309F
:102DC0000023A0F8DA30704710360020F8B5D0F8AC
:102DD000DC300133C0F8DC30D0F8E0300133C0F82B
:102DE000E030D0F8E4300133C0F8E43090F86E30D1
:102DF0000B2B84BF002380F86E3090F86E300446B1
:102E00000F46154693B901F044FE04F16F0638B938
:102E100004F1100001F03DFE10B93046344902E0E3
:102E2000304604F17B010C2208F008FA94F86E1089
:102E3000214404F1AF006F31032208F0FFF9012DA6
:102E400014BF0423082384F88930D4F8DC30002030
:102E5000132B84F8870084F8880006D904EB05104A
:102E600001F017FE003018BF01207B1E5942594166
:102E700094F86E302BB1B3F1090218BF012201257D
:102E800001E01D46012294F8AFC080EA01064CEA39
:102E9000C01085EA010740EAC101002D84F8AF1097
:102EA00094F8B0100CBF00208020014341EAC20119
:102EB000AE4214BF0225002594F8B1000D4397429D
:102EC00014BF202100210143964214BF0226002690
:102ED00041EA060284F8B12003330322A4F8D82083
:102EE00084F8B050002284F86E30A4F8DA20F8BDDF
:102EF00054C4000838B590F84C300446002B48D034
:102F0000B0F8D8200ABB013B042B17D8DFE803F048
:102F100003160E0813000021FFF7DFFE042312E062
:102F200001210022FFF752FF03230CE00121FFF7EC
:102F3000D4FE022307E0FFF70DFF06E00021012287
:102F4000FFF744FF012384F84C30B4F8D83003B3C2
:102F5000104800F049FB0546142D1AD9B4F8DA30B0
:102F6000E218013392F8AF1092F88720A4F8DA3013
:102F70002046FFF769FEB4F8DA20B4F8D830143DE3
:102F80009A42ADB2E8D30023A4F8DA30A4F8D830DE
:102F900038BD38BDA80A002037B500F14D040D46F4
:102FA00021220749204608F049F901A804F018F940
:102FB00001A829460922234604F066F903B030BD72
:102FC00060C4000801F03EBD103001F03BBDD0F8F8
:102FD000DC0070470022027042708270704700006F
:102FE00010B504460F4804F017FA0E4804F091FAA1
:102FF000B0B16378012B10D10B4BA1780948312275
:1030000002FB013104F0B8F9A378013303F00303A4
:10301000A370237823B9637010BD00236370A3707D
:1030200010BD00BFD80D002089C40008012A034646
:1030300009D10878411E48424841187030B158788B
:1030400018B95A707047042070470020704770B557
:1030500004460625002686F0010620463146FDF787
:10306000F3FB20463146FDF7FFFB20463146FDF7D6
:1030700003FC20463146FDF707FC20463146FDF7AC
:103080000BFC20463146FDF70FFC20463146FDF78C
:1030900013FC20463146FDF717FC013D2046FA217E
:1030A000FDF71AFC15F0FF05D5D120462946FDF79E
:1030B000E3FB20460121FDF7E7FB20462946FDF70B
:1030C000EBFB20462946FDF7EFFB20462946FDF79E
:1030D000F3FB20462946FDF7F7FB2046FA21FDF7D2
:1030E000FBFB20460121FDF7C7FB20460121FDF730
:1030F000CBFB20462946FDF7CFFB20462946FDF7AE
:10310000D3FB20462946FDF7D7FB20462946FDF78D
:10311000DBFB2046FA21FDF7DFFB20460121FDF70E
:10312000ABFB20460121FDF7AFFB20460121FDF757
:10313000B3FB20462946FDF7B7FB20462946FDF79D
:10314000BBFB20462946FDF7BFFB2046FA21FDF7D1
:10315000C3FB20460121FDF78FFB20460121FDF72F
:1031600093FB20460121FDF797FB20460121FDF747
:103170009BFB20462946FDF79FFB20462946FDF78D
:10318000A3FB2046FA21FDF7A7FB20460121FDF70E
:1031900073FB20460121FDF777FB20460121FDF757
:1031A0007BFB20460121FDF77FFB20460121FDF737
:1031B00083FB20462946FDF787FB2046FA21FDF7D1
:1031C0008BFB20460121FDF757FB20460121FDF72F
:1031D0005BFB20460121FDF75FFB20460121FDF747
:1031E00063FB20460121FDF767FB20460121FDF727
:1031F0006BFB2046FA21FDF76FFB20460121FDF70E
:103200003BFB20460121FDF73FFB20460121FDF756
:1032100043FB20460121FDF747FB20460121FDF736
:103220004BFB20462946FDF74FFB2046FA21FDF7D0
:1032300053FB20460121FDF71FFB20460121FDF72E
:1032400023FB20460121FDF727FB20460121FDF746
:103250002BFB20462946FDF72FFB20462946FDF78C
:1032600033FB2046FA21FDF737FB20460121FDF70D
:1032700003FB20460121FDF707FB20460121FDF756
:103280000BFB20462946FDF70FFB20462946FDF79C
:1032900013FB20462946FDF717FB2046FA21FDF7D0
:1032A0001BFB20460121FDF7E7FA20460121FDF72F
:1032B000EBFA20462946FDF7EFFA20462946FDF7AE
:1032C000F3FA20462946FDF7F7FA20462946FDF78E
:1032D000FBFA2046FA21FDF7FFFA20462946FDF7C2
:1032E000CBFA20460121FDF7CFFA20462946FDF70B
:1032F000D3FA20462946FDF7D7FA20462946FDF79E
:10330000DBFA20462946FDF7DFFA2046FA21FDF7D1
:10331000E3FA20462946FDF7AFFA20462946FDF795
:10332000B3FA20462946FDF7B7FA20462946FDF7AD
:10333000BBFA20462946FDF7BFFA20462946BDE8DC
:103340007040FDF7C1BA00002DE9F04F002504469A
:1033500085B04FF4167100F8045B03F09AFE4FF449
:10336000FA7104F1180003F094FE4FF4167104F1A1
:103370002C0002F080FC04F13C002946102207F0EA
:1033800066FF04F14C030393E56425656565A56557
:10339000A4F85C5025666566A4F86850E566256764
:1033A000A4F87450A567E567A4F88050C4F8845069
:1033B000C4F88850A4F88C50C4F89050C4F89450C5
:1033C00004F1980B00232BF8053002358C2DF9D130
:1033D00004F5927A00222AF803200233502BF9D107
:1033E00004F5BA79002329F8023002323C2AF9D1D7
:1033F00004F5D878002628F803600233DC2BF9D1D5
:1034000004F523770025BD530236782E2B46F9D1DB
:103410004FF480424FF0010CA4F80623A4F80823CF
:10342000A4F80A23A4F80C23A4F80E23A4F810236C
:10343000A4F81223A4F814234FF4006284F820C3E4
:10344000A4F81623A4F81823294684F80453C4F8D2
:103450001C5384F82153A4F82253A4F82453C4F82D
:10346000285384F82C5358468C220293CDF804C07C
:1034700007F0EDFE29465046502207F0E8FE2946A7
:1034800048463C2207F0E3FE29464046DC2207F08E
:10349000DEFE29463246384607F0D9FE2946039813
:1034A000102207F0D4FE029B84F848302A23A4F8A7
:1034B0005C301A4B63660C23A4F86830184B236702
:1034C0000623A4F87430174BE3675223A4F8803026
:1034D000154B039AC4F888302023DDF804C0226419
:1034E000A4F88C30114A124BC4F83CC06264C4F892
:1034F00094302046C4F860B0C4F86CA0C4F878904A
:10350000C4F88480C4F89070FCF7B8FF2046FFF739
:103510009EFD204605B0BDE8F08F00BFE40100200D
:10352000C4000020D8010020DC000020C0010020E1
:10353000800100202DE9F84398460378089F04464F
:103540000E469146002B4AD090F82C33002B46D1E2
:10355000244D2B7833B990F80413012359402B7074
:10356000FDF77AF9711E052916D8DFE801F0030688
:10357000090C0F12B4F80A5310E0B4F80C530DE024
:10358000B4F80E530AE0B4F8105307E0B4F812533D
:1035900004E0B4F8145301E0B4F808530026B3B2C1
:1035A00043451CD239F81610B4F8183311FB05F155
:1035B000C91301F30F01194489B2B1F5805F04D337
:1035C000B4F824330133A4F8243304F118000FB9FC
:1035D0003A4600E0BA5D03F0B1FD0136DFE7BDE831
:1035E000F88300BF6C670020183003F065BD000051
:1035F00038B5054B1A788A420C461D4601D0FDF7B6
:1036000033F92C7038BD00BF1136002080F821132B
:103610007047000038B5194C21784B1E594259416A
:103620000546FDF729F921788A1E51425141284665
:10363000FDF72AF92178B1F1030EDEF1000151EB1B
:103640000E012846FDF728F92178B1F1040CDCF1D0
:10365000000151EB0C012846FDF726F921784B1F9C
:10366000594259412846FDF727F921788A1F5142CE
:1036700028465141BDE83840FDF726B910360020F4
:10368000037810B5044643B9FCF7E2FF0123237029
:103690002046BDE81040FFF7BDBF10BD2DE9F04149
:1036A000D0F81C23037801328CB00446C0F81C23E8
:1036B0007BB3D0F828234BF67F339A4216D9A04A21
:1036C0001378591E052915460DD8022B06D19D4B9E
:1036D0001B781BB19C480021FFF7A1FA002320466C
:1036E0002B70FFF797FF0023C4F82833D4F81C335E
:1036F00045F6BF5293421BD994F82013002381F062
:103700000101C4F81C3384F820132046FDF79CF80F
:103710000EE08E498A4240F2968190F82013C0F85C
:103720001C3381F0010180F82013FDF78DF88AE148
:1037300004F1180003F0E2FC20B9824B1A78002A49
:1037400040F07A81271D384603F0D8FC012840F26A
:103750007A81002502AA0AA92A44384603F015FDF9
:103760004FEA450804A904F12C00414402F0F6FA9E
:1037700094F821335BB1BDF828301BB140F6FF72DD
:10378000934204D1B4F822330133A4F82233BDF8B4
:103790002820B4F81633D31AB4F8062303AE013543
:1037A00013FB02F3022D4FEAE33303F30F0328F870
:1037B0000630CFD194F82C33002B40F044813046B2
:1037C00008A92A4607F00CF80AAA2B4604F13C0087
:1037D00008A907F08DFB0A9A0B9B134493FBF5F3A2
:1037E000BDF80C201B1403F30F039BB2D21AADF8E3
:1037F0001420BDF80E20D31AADF81630504B1B78AC
:10380000002B5ED1524B1B7863B104F1680005A90F
:1038100007AA2B4607F010FA4E4807A904AA2B4620
:10382000FFF798F84C4B1B7863B104F1740005A9BD
:1038300007AA022307F000FA484807A904AA0223AE
:1038400004F0C4FE464B1B789BB104F1800005A92F
:1038500006AA022307F0F0F904F18C0006A907AAD2
:10386000022307F0E9F93F4807A904AA022301F05F
:103870008BFC3D4B3D4D1A781F461AB92B78002B17
:1038800000F0E180022304F15C00314607AA07F052
:10389000D3F92B782BB1364807A904AA022302F0EA
:1038A0009FF93B78002B00F0CE80324B1B781BB188
:1038B000314807A9022238E0304807A904AA0223A8
:1038C0003AE0012B12D1224B1B78002B00F0BB8079
:1038D00004F1680005A907AA2B4607F0ADF91D48B9
:1038E00007A904AA2B46FFF735F8ACE0022B49D113
:1038F0001D4B1B78002B00F0A6802B4604F15C00CA
:10390000314607AA07F098F91A4B1B7883B10D4B83
:103910001B783BB100951A4807A904AA02AB03F033
:10392000DBF990E0144807A92A4600F075FE8AE00A
:10393000124807A904AA2B4602F0ECFD83E000BF61
:10394000103600206C670020143600207FA9030089
:10395000B40200200C640020B5020020C841002001
:10396000B1020020AC960020B3020020B202002079
:1039700070670020B0020020783C0020F07A002020
:1039800008160020032B11D1304B1B78002B5AD086
:1039900004F15C0005A907AA2B4607F04DF92C4855
:1039A00007A904AA2B4602F01BF94CE0042B11D105
:1039B000284B1B78002B46D004F1740005A907AAF8
:1039C0002B4607F039F9244807A904AA2B4604F02E
:1039D000FDFD38E0052B18D1204B1B78002B32D091
:1039E00004F1800005A906AA2B4607F025F904F189
:1039F0008C0006A907AA2B4607F01EF9184807A94C
:103A000004AA2B4601F0C0FB1DE0632B0CD104F18E
:103A10006800314607AA2B4607F00EF9114807A99E
:103A20002A4600F0D3FF0EE0602B0CD10E4804A90B
:103A3000022203F07FFD06E0187094F8041320467C
:103A4000FCF70AFF7EE60CB0BDE8F081B202002070
:103A500070670020B5020020C8410020B10200209C
:103A6000AC960020B07A0020043600202DE9F04307
:103A700080F80433BDF940909DF820309DF81C80FB
:103A80009DF824C09DF828709DF82C609DF830505A
:103A90009DF83440DB0109F50069A0F80833A0F86F
:103AA00016939DF83830BDF93C904FEAC8184FEA9C
:103AB000CC1CFF01F601ED01E401DB0109F5006911
:103AC000A0F80683A0F80AC3A0F80C73A0F80E6350
:103AD000A0F81053A0F81243A0F81433A0F81893DC
:103AE00019B1C8F10008A0F8068392B1CCF1000C1E
:103AF0007F4276426D4264425B42A0F80AC3A0F85E
:103B00000C73A0F80E63A0F81053A0F81243A0F8AD
:103B10001433BDE8F083B0F82233003318BF01231B
:103B20000B70B0F82433003318BF01231370002347
:103B3000A0F82233A0F824337047183003F04BBBB1
:103B4000043003F048BB0023C0F828337047D0F896
:103B50002803704790F82C037047000038B54FF4E5
:103B60007A61044600F061FF0C2204F1100000218C
:103B700007F06DFB04F11C0500220023AB5202325A
:103B8000202AFAD104F13C020021D1540133B3F5CB
:103B9000966FF9D1F023A4F8F0344FF49653C4F89B
:103BA000F434A4F8EC14A4F8EE1484F8F214C4F875
:103BB000F8142846202207F04AFB05232374092322
:103BC0006382024B6361A561204638BD3802002044
:103BD000792A70B505460E460DD100F038FF7728DA
:103BE0000BD90024331928465978013400F071FFAD
:103BF000782CF7D103E0042070BD052070BD0020B3
:103C000070BD000070B500238EB001F0C005802D9E
:103C100090F8F24402AA0ED0C02D05D095B94FF607
:103C2000C4654FF6895611E0002C40F2657418BF48
:103C30004FF46D740EE0002C40F2772418BF4FF45F
:103C40009E7407E04FF64C454FF69B06002C0CBFC8
:103C500034462C46D45202338900082BC9B2D4D141
:103C60001146103004AA042306F0EAFD0023009355
:103C70000348032104AA1423FFF75CFC0EB070BDB7
:103C8000A80A002010B58EB0002402A904AA1030A2
:103C900004230294039406F0D3FD00940348032107
:103CA00004AA1423FFF746FC0EB010BDA80A00209A
:103CB00038B5044600F0EDFEB4F8EC34002861D1CC
:103CC000002B5FD1D4F8F834002B6ED0204600F0E2
:103CD000E0FEB0B1354B1B78002B56D0782520463E
:103CE00000F01DFFB4F8EC34013D5A1C234415F0DC
:103CF000FF05A4F8EC2483F83C00F0D10023A4F8DD
:103D0000EE34B4F8EC3433B32948FFF76DFC0546C4
:103D1000142D1FD9B4F8EE345A1C2344A4F8EE2411
:103D200093F83C102046FFF76DFF224B1B78143DA3
:103D3000ADB21BB1D4F8F434C4F8F834B4F8EE24BE
:103D4000B4F8EC349A42E3D30023A4F8EE34A4F898
:103D5000EC3438BD38BDD4F8F83433B31448FFF729
:103D600043FC0546142D0CD92046FFF78BFFD4F8F1
:103D7000F834143D013BADB2C4F8F834002BF1D156
:103D800013E038BD002BBCD1A0E7B4F8F0149AB210
:103D90008A42B3D2B4F8EC24501C2244A4F8EC04B8
:103DA000772082F83C000133F1E738BD6C670020D2
:103DB000A80A0020B002002001EB4101890001F5B2
:103DC0001671B1F5966F8ABF4FF49663A0F8F014A0
:103DD000A0F8F034704708B500F039FE7823B0FB46
:103DE000F3F0C0B208BD4FF496635A4380F8F21462
:103DF000C0F8F4247047000038B54FF4B971044698
:103E000000F013FE0C2204F11000002107F01FFA4D
:103E100004F11C0500220023AB520232282AFAD1F9
:103E200004F144020021D1540133B3F5167FF9D1D6
:103E30003C23A4F8A032A4F89C12A4F89E122846B1
:103E4000282207F004FA0523237403236382024B1C
:103E50006361A561204638BD92020020292A70B511
:103E600005460E4618D100F0F2FD2928024606D874
:103E70000B480C4912B2FDF77BFD052070BD2846AA
:103E8000002100F026FE0024315D2846013400F0B8
:103E900020FE292CF8D101E0042070BD002070BD67
:103EA000B032002075CA00080C2A70B505460E46CF
:103EB00018D100F0CCFD0C28024606D80B480C495E
:103EC00012B2FDF755FD052070BD2846012100F016
:103ED00000FE0024315D2846013400F0FAFD0C2C70
:103EE000F8D101E0042070BD002070BDB032002088
:103EF00095CA000810B5044600F0A9FD024628B98D
:103F000005480649FDF734FD052010BD2046022175
:103F100000F0DFFD002010BDB0320020B3CA000861
:103F20002DE9F047002096B001AC0023035513544F
:103F300001305328F8D118461C4611F80380074673
:103F40001D01204600260124B44018EA040F0CBFCE
:103F50000024012404EB070C07442744FF070CF05E
:103F6000010C0FD505F00707DFF8509119F807A0ED
:103F70000DF1580909EBD50717F8549C4AEA0909CD
:103F800007F8549CBCF1000F11D005F1010C0DF1A4
:103F9000580909EBDC070CF0070CDFF8209119F841
:103FA0000C9017F854CC49EA0C0C07F854CC0136A5
:103FB000082E05F1020502D007462046C3E701336B
:103FC0002A2BBAD13B4B002016AC04EBD00111F8E0
:103FD000541C0C0609D513F80E4C13F80D5C012681
:103FE00006FA05F5165D354315554F0609D513F844
:103FF0000C4C13F80B5C012606FA05F5165D3543EB
:1040000015558E0609D513F80A4C13F8095C0126DC
:1040100006FA05F5165D35431555CD0609D513F895
:10402000084C13F8075C012606FA05F5165D3543C2
:104030001555B0F5247F30D00C0709D513F8064C80
:1040400013F8055C012606FA05F5165D354315558E
:104050004F0709D513F8044C13F8035C012606FA40
:1040600005F5165D354315558E0709D513F8024C35
:1040700013F8015C012606FA05F5165D3543155562
:10408000CD0707D519785C78012505FA04F4555C4D
:104090002C4354540830103396E700230649585CEB
:1040A000D15C4140D1540133532BF7D116B0BDE858
:1040B000F08700BF5BC50008E4CA0008D0CA00084A
:1040C00030B500239BB00C46012202EA0401914264
:1040D00002A90CBF4FF6B74540F24935CD52023325
:1040E0005200102BD2B2F0D106AA1030082306F0ED
:1040F000A7FB002300930448012106AA2823FFF709
:1041000019FA1BB030BD00BFA80A002070B5A2B0DC
:10411000044600F0BEFC20B9B4F89C32002B00F03D
:104120009A80204600F0F6FCB4F89C5200283BD15F
:10413000002D6FD1494B1B787BB9B4F8A0129AB20D
:104140008A4264D2B4F89C22501C2244A4F89C02F7
:10415000AA2082F844000133F1E7204600F0DFFC9A
:10416000204600F0DCFC01A948550135292DF7D186
:104170000DF132022046FFF7D3FEEA238DF83030EE
:10418000B4F89C22A6238DF8313000230CA8D11856
:10419000185C14FA81F10133552B81F84400F5D1F4
:1041A0005532A4F89C2232E0012814D195BB204658
:1041B00000F0B5FC0C25B4F89C62731CA4F89C328A
:1041C000204600F0ACFC2644013D15F0FF0586F8C2
:1041D0004400F0D11BE002281CD1DDB9204600F0DC
:1041E0009EFCB4F89C3203F1120189B200221C4DEE
:1041F0009818555D14FA80F00132062A80F8445070
:10420000F5D106339BB28B42F0D1A4F89C32002347
:10421000A4F89E32B4F89C32EBB11248FFF7E4F9EF
:104220000546282D17D9B4F89E325A1C2344A4F809
:104230009E2293F844102046FFF742FFB4F89E22D6
:10424000B4F89C32283D9A42ADB2EAD30023A4F8D8
:104250009E32A4F89C3222B070BD00BF6C67002073
:10426000D8CA0008A80A002001EB4101490001F565
:104270009671B1F5167F8ABF4FF41673A0F8A0129D
:10428000A0F8A032704708B500F0E1FB0D23B0FBA9
:10429000F3F0C0B208BD10B500230022C2500433B1
:1042A000142BFAD100F114040023A3520232B2F508
:1042B000A56FF9D142F20F72A0F83C35A0F83E3557
:1042C000A0F84025C0F84435A0F84835A0F84A3594
:1042D00080F84C3510BD0023A0F83E35A0F83C35E1
:1042E000C0F84435A0F84A35A0F8483542F20F73BB
:1042F000A0F84035704700002DE9F047BDF8205088
:10430000BDF92480BDF928C005EB4202AE1C6C1C2F
:1043100002F1020AB6B2A4B21FFA8AFAB71E5645D3
:10432000BFB24AD000EB4102FD10B2F81490C8EBC6
:104330000909CCF100020FFA89F9914507F0070746
:104340001F4A07DA12F807905F5D27EA09075F55F1
:10435000E5101DE0B9F1000F07DA12F807905F5D74
:1043600027EA09075F55E51009E0E145D75D13F835
:10437000059049EA07075F554FEAE40508DA04F0BB
:104380000707D75D2A465D5D25EA07059D5406E0CF
:1043900004F007095F5D12F809203A435A554A1D97
:1043A00092B2B2F5257F24BFA1F28F218AB20236E4
:1043B0000234B6B2A4B21146B0E7BDE8F08700BF40
:1043C00079CB00082DE9F04FB0F83C3550F82320A8
:1043D00000294FEA4202B8BF42F0010240F8232010
:1043E000B0F83E2500EB42020446918250F823309B
:1043F000834823F07F4391B0584000F015FF022816
:1044000000F2A580B4F83E6506F2212189B2B1F52B
:10441000257F28BFA6F173024FF000002CBF92B297
:104420000A464FF47A5C4CF28017054604EB4203CF
:10443000DFF8E081B3F9143010F908803FB20FFAC9
:104440008CFC9F42B8BF1F469C45A8BF9C46B8F154
:10445000010FBFB21FFA8CFC0AD0B8F1030F05D0D0
:10446000B8F1FF3F06D003EB430303E003EB430344
:10447000ED1A00E01D44531D9BB2B3F5257F28BF04
:10448000A2F28F2200F1010028BF93B2182801D0B8
:104490001A46CBE7D4F844359D4258DD3FB207FABF
:1044A0008CFC4FEA6C0C1FFA8CF8CCEB070744F637
:1044B000314C0CFB07F7B1F5257FC7F3CF3728BF89
:1044C000A6F173014FF004030DF11C0B0FFA88FAEB
:1044D0000FFA87F9009328BF89B25B46CDF804A094
:1044E000CDF80890204618220026FFF705FF334636
:1044F000444AB05C1BF8062005931040424AB25C67
:10450000504000F08BFE059B01361844072EC3B2C5
:10451000EED1032B1BD852464B463C483C49FDF795
:1045200035FDB4F83E35C4F8445503F20D1292B28D
:10453000B2F5257F24BF6FF4C3729B18A4F8488599
:10454000A4F84A7534BFA4F84025A4F84035B4F85F
:104550003E25B4F8403593423CD1991D89B2B1F55E
:10456000257F28BFA3F28E214FF008030093B4F9F2
:1045700048350193B4F94A35029328BF89B28422A1
:1045800007AB2046FFF7B8FE06A802F029FE0DF1A2
:104590001A020DF11B0306A80DF11D0102F04EFEDB
:1045A0009DF81A2094F84C359A420CD19DF81B3096
:1045B000032B08D1C3238DF81C301448002107AA0F
:1045C0002223FCF70BFF42F20F73A4F840350023BF
:1045D000C4F84435B4F83E3501339BB2B3F5257FBA
:1045E00028BF0023A4F83E35B4F83C3501339BB214
:1045F000042B88BF0023A4F83C3511B0BDE8F08F30
:104600006E2876003FCB000846CB0008B032002071
:104610004DCB000881CB000870B58C1E054604EB1D
:104620004206B44205D0284634F9021FFFF7CAFEFD
:10463000F7E770BD80F84C15704700000148FCF7A3
:1046400029BE00BFB032002010B53A483A4CFDF701
:10465000BBF93A48FFF722F8394B1B782BB1237886
:10466000012B02D13748FFF751FD374B1B7863B15F
:104670002378022B09D1354B1B781BB13448FEF748
:1046800039FC02E03348FBF783FE334B1B782BB138
:104690002378032B02D13148FFF70AFB304B1B78FC
:1046A0002BB12378042B02D12E4800F0C7FE2E4BED
:1046B0001B782BB12378052B02D12C4802F0ACFEDD
:1046C0002B4B1B7833B12378062B2ED02948FCF7CF
:1046D00041F950BB2378632B02D12748FCF7FCF942
:1046E0002378622B05D0A3F15E02012A01D95C2B4D
:1046F00002D1224802F04EFC23785D2B02D12048E3
:1047000002F08EFC23785B2B02D11E48FEF768FC7A
:104710002378652B02D11C4800F0CCFD237843B9E7
:104720001A48BDE8104003F0B5BF1248FCF764F921
:10473000D0E710BDB032002010360020A80A0020BB
:10474000B402002064130020B3020020B002002055
:104750001436002058A60020B2020020AC910020A0
:10476000B502002000370020B1020020D80D002043
:10477000B6020020C433002054A6002028A6002042
:10478000A89600206D670020A60A0020B806002029
:1047900008B5FFF753FFFFF757FFFCE708B52548BB
:1047A000FDF7C8FC2448FFF727FB2448FFF773FDFB
:1047B000234802F085FA2348FEF716F9224801F053
:1047C000F2FA2248FBF76AFD214800F0ACFE2148CE
:1047D000FFF7C4F9204803F018FA204800F08AFDDA
:1047E0001F4800F0B0F91F4802F07CFD1E48FCF79E
:1047F00083F81E4800F04EF81D48FCF769F91D4883
:1048000002F0C4FA1C4802F007FC1C48FEF7E2FB69
:104810001B4800F04BFD1B4802F083FE1A4803F0D2
:104820002BFF1A48FCF7B2FA1948BDE80840FEF71A
:104830008BBD00BF0C64002064130020783C002076
:104840000816002014360020F07A002058A6002018
:1048500070670020AC910020C84100200037002084
:10486000AC960020D80D0020C4330020B07A002080
:1048700054A6002028A60020A89600206D670020DE
:10488000A60A002004360020B8060020B03200201E
:10489000A80A0020002310B503600371836000F1B3
:1048A0000C040022E2520233302BFAD180F83C2073
:1048B00010BD000037B5836890F83C2000294FEA0E
:1048C0004303B8BF43F001038360531CDBB2172BD3
:1048D00000EB420280F83C3088BF002391810446FF
:1048E00088BF80F83C30806820F07F4334485840CF
:1048F00000F09AFC02282BD800214FF47A534CF296
:104900008012601812B2B0F90C001BB20231824260
:10491000B8BF02468342A8BF0346302992B29BB279
:10492000EFD110B219B2451A052D11DD001209128E
:1049300000258DF801008DF802208DF80310214824
:104940008DF80050694605228DF80430FCF7AAFE68
:10495000A06820F07F431C48584000F065FC022806
:104960002BD800214FF47A534CF28012601812B207
:10497000B0F90C001BB202318242B8BF024683423A
:10498000A8BF0346302992B29BB2EFD110B219B240
:10499000441A052C11DD0012091280248DF8010043
:1049A0008DF802208DF8031006488DF80040694606
:1049B00005228DF80430FCF775FE03B030BD00BF52
:1049C00068B4AA00B0320020974B55002DE9B841D9
:1049D00004460F4690460025ABB2434523D237F834
:1049E00015102379C80B834209D02368B3F5004F13
:1049F0002ABF6FF4CC7203F299139B1823602071C5
:104A0000206800F54C533333B3F5803F01D2236067
:104A100007E0A0F54C43CD3B2360204609B2FFF7E9
:104A200049FF0135D8E7BDE8B88110B500230381FF
:104A30000446438101800373084606F073FB6060FF
:104A4000204610BD002303814381037370474289D0
:104A5000038992B29BB29A42038803D1027B92B936
:104A6000184612E04189028989B292B2914205D278
:104A70000289408913FA80F0801A02E04189028994
:104A8000881A80B201E000207047834238BF0020BE
:104A900070474289038992B29BB29A4205D1037B47
:104AA00003F0FF029BB1008870474289038992B2EC
:104AB0009BB29A4203D202894389D01A05E0438906
:104AC0000288018912FA81F0C01A80B2704710463C
:104AD0007047037B10B503F0FF02BBB9048943683C
:104AE000A4B219550389018801339BB2038103895C
:104AF0009BB2994298BF02810289438992B29BB2CC
:104B00009A424FF0010303D1037301E0002010BD6E
:104B1000184610BD438942689BB2D05C704710B5FF
:104B20004189426889B20346505C1C8800221A738E
:104B30005989013189B25981598989B28C42C0B2EF
:104B400098BF5A8110BD0146002310B501F8023B01
:104B50000022CA520233142BFAD100F116040023AA
:104B6000A3520232B2F5706FF9D142F20F72A0F87F
:104B7000163FA0F8183FA0F81A2FA0F81C2FA0F895
:104B80001E2FA0F8202FA0F8222FC0F8243FA0F855
:104B9000283F80F82A3F00F62C710022CA520233C7
:104BA000202BFAD1A0F84C2F00F64E7100238B5227
:104BB0000232202AFAD16322A0F86E3F80F8702FCB
:104BC000C0F8743FA0F8783F10BD6322002380F83E
:104BD000702F42F20F720370A0F8183FA0F8163F32
:104BE000C0F8243FA0F81A2FA0F81C2FA0F81E2F01
:104BF000A0F8202FA0F8222FA0F84C3FA0F86E3F7D
:104C0000A0F8283F80F82A3FC0F8743FA0F8783F0A
:104C100070470000F7B54FF47A534CF28015044604
:104C20004FF0000E1F462E461FFA8EF0904227D2FC
:104C300004EB4100B0F9160000280ADD36B23FB29D
:104C4000B042A8BF0646B842B8BF0746B6B2BFB228
:104C500009E01BB22DB29842B8BF0346A842A8BFD4
:104C600005469BB2ADB201F10A0080B2B0F5F06F1B
:104C700024BFA1F2767188B20EF1010E0146D3E78E
:104C80003AB22DB202FA86F205FA83F352105B10A3
:104C9000D1184910561AB6B200918FB231B20191B3
:104CA00022482349FDF7F0F994F8703F632B0ED1A9
:104CB000234600220232202AA3F82C7FA3F84E6F4D
:104CC00003F10203F6D1002384F8703F0BE004EBFC
:104CD00043020133DBB20F2BA2F82C7FA2F84E6FF8
:104CE00084F8703FEFD80023A4F84C3FA4F86E3F3F
:104CF000224619461846B2F82C5F2B44B2F84E5F94
:104D00000231284420299BB280B202F1020202D073
:104D10009BB280B2EFE743F30B1340F30B10A4F800
:104D20004C3FA4F86E0F03B0F0BD00BFB0320020BE
:104D3000A6CB00082DE9F04FBDF82440BDF928A00E
:104D4000BDF92C9004F1020801341FFA88F8A4B2CE
:104D50004FF0000C1FFA8CF5A8F102079542BFB284
:104D60004FD200EB4105FE10B5F816B0CAEB0B0BA5
:104D7000C9F100050FFA8BFBAB4507F00707224D81
:104D800007DA15F807B09F5D27EA0B079F55E61075
:104D90001DE0BBF1000F07DA15F807B09F5D27EAA9
:104DA0000B079F55E61009E0CB45EF5D13F806B001
:104DB0004BEA07079F554FEAE40608DA04F00707B5
:104DC000EF5D35469E5D26EA07065E5506E004F077
:104DD000070B9F5D15F80B503D439D5501F10A05EA
:104DE000ADB2B5F5F06F24BFA1F276718DB208F1C6
:104DF000020802340CF1010C1FFA88F8A4B229460B
:104E0000A8E7BDE8F08F00BF14CC0008B0F8163F4B
:104E100000EB43032DE9F04704465888C0F309002E
:104E200080F4A67086B080F0010000F0FDF9022841
:104E300000F2AC80B4F8180F00F22677BFB2B7F5D5
:104E4000F06F28BFA0F15A024FF000012CBF92B2C0
:104E50003A460D464FF47A564CF2801C04EB42035E
:104E6000DFF83881B3F9163011F908800FFA8CFC9D
:104E700036B29C45B8BF9C469E42A8BF1E46B8F1BC
:104E8000010F1FFA8CFCB6B20AD0B8F1030F05D09F
:104E9000B8F1FF3F06D003EB430303E003EB43030A
:104EA000ED1A00E01D4402F10A039BB2B3F5F06F66
:104EB00028BFA2F2767201F1010128BF93B20A293C
:104EC00001D01A46CAE7D4F8243F9D425EDD94F82B
:104ED000703F632B10D10FFA8CFC0CFA86F676101B
:104EE000C6EB0C0CA4F84C6F44F63E1606FB0CFC0B
:104EF0004FEAEC3CA4F86ECFB7F5F06F28BFA0F1F5
:104F00005A07B4F94C3F019328BFBFB20026B4F949
:104F10006E3F02930DF114094B4600962046394628
:104F20000A22FFF707FF2378B34214BF4FF0030AAA
:104F30004FF0010AB046174BF05C19F806301840E4
:104F4000154BF35C584000F069F901364044032EDC
:104F50005FFA80F8EFD1D04518D80623A4F8283F8F
:104F6000B4F8183FA4F81E3F03F21B7292B2B2F5D8
:104F7000F06F28BF653BC4F8245FA4F81A7F34BFE4
:104F8000A4F81C2FA4F81C3F012000E0002006B06C
:104F9000BDE8F087A3CB000811CC000899CB00082E
:104FA00010B50446FFF732FFA0B194F82A3F8BB941
:104FB000C4F8743FA4F8783F1B480121FEF718FBA2
:104FC00019480121FEF722FB632384F8703F052373
:104FD00084F82A3F94F82A3F13B1013B84F82A3F12
:104FE00094F82A3F012B1ED1B4F81E3F03F27F72C2
:104FF00092B2B2F5F06F28BF03F1FF32A4F8202F70
:105000005A1C92B2B2F5F06F24BFA3F27F73A4F8DA
:10501000223F4FF0010323704FF0000338BFA4F884
:10502000222F84F82A3F10BDA80A0020B0F8782F5C
:1050300010B5044662B1D0F8740FB0FBF2F2C2F3BF
:10504000072081F8310081F832200648332201E040
:1050500004483122FCF7D8FA0023C4F8743FA4F8BE
:10506000783F10BDB032002030B5B0F8201FB0F846
:10507000222FB0F8183F914293B0044607D28B42DA
:1050800008D3934206D82046FFF7C0FE02E08B42C9
:10509000F7D3F8E7B4F8182FB4F81C3F9A4269D157
:1050A000B4F8283F062B16D1B4F81E3F03F27F72E6
:1050B00092B2B2F5F06F28BF03F1FF32A4F8202FAF
:1050C0005A1C92B2B2F5F06F2ABFA3F27F73A4F814
:1050D000222FA4F8223F2046B4F81A1FC022FFF75F
:1050E00099FDB4F96E1FB4F91E2FB4F94C3F00912D
:1050F00021482249FCF781FF08230093B4F94C3F73
:105100000193B4F96E3F0293B4F81A1F2046C022EF
:1051100005ABFFF70FFEB4F8285F013DADB2A4F870
:10512000285FDDB914481649FCF70CFB15482946E1
:10513000FEF75EFA13482946FEF768FA0E48FCF7B8
:1051400091FA42F20F73A4F81C3F6323257084F890
:10515000703F84F82A5FC4F8245F0BE06B1F5D4248
:105160005D41204605A98DF81450FFF75FFF00232D
:10517000C4F8243F13B030BDB0320020C7CB0008C4
:10518000EFCB0008A80A00202DE9F04104460F46A5
:1051900090465E000025B5423ED038F80510D4F8A0
:1051A000742F7B5BB4F8160F0A44C4F8742FB4F85C
:1051B000782F04EB40000132A4F8782F428819B20E
:1051C000520092B20029B8BF42F001024280B4F806
:1051D000182F04EB42022046D3822378012B02D100
:1051E000FFF742FF01E0FFF7DBFEB4F8183FB4F829
:1051F000160F01339BB20130B3F5F06F80B228BFB8
:1052000000230928A4F8183F8ABF0023A4F8160F2A
:10521000A4F8163F0235BEE7BDE8F081014B185CEB
:10522000704700BF1CCC0008094BC0F30721C2B275
:10523000595C9A5C0A44C0F30741000E595C1B5C40
:1052400051FA82F253FA82F0C0B282B002B07047D3
:105250001CCC000882B0144BCDE90001C2B2C0F3EF
:1052600007219A5C595C0A44C0F30741000E595C5F
:10527000185C51FA82F250FA82F09DF80420995C91
:105280009DF8052051FA80F0995C9DF8062051FAAE
:1052900080F0995C9DF807209B5C51FA80F053FAEE
:1052A00080F0C0B202B070471CCC0008002202702F
:1052B0007047000008B5037853B10648FEF794F92B
:1052C000A52805D90448AA21BDE80840FBF764BB1E
:1052D00008BD00BFA80A0020C4330020012A06D15F
:1052E0000B785A1E5342534103700020704704202C
:1052F00070470000F8B54FF47A610446FFF795FB5C
:1053000004F1100000210C2205F0A1FF0023A3836B
:105310002362636204F128070022FA520233202B31
:10532000FAD104F148060023B3520232782AFAD1A6
:1053300004F1C0020025D5540133B3F5966FF9D1BD
:10534000F023A4F874352946A4F87055A4F87255D2
:105350003846202205F07BFF30462946782205F0AA
:1053600076FF0523237408236382054B63612023A2
:10537000A383044BA761266263622046F8BD00BF89
:10538000F8020020B8020020122AF8B506460F469F
:10539000144616D9FFF75BFBA04214D3651E3046B6
:1053A000E9B2FFF796FB0024E3B2AB4204F101043B
:1053B00005D23B4430465978FFF78BFBF4E70020D9
:1053C000F8BD0420F8BD0520F8BD000030B500236D
:1053D00099B0054601F0C004802C02AA08D0C02C68
:1053E00003D044B94FF65C6007E040F2EC4004E0C3
:1053F0004FF4D27001E04FF61430D05202338900DE
:10540000082BC9B2E6D105F110001146042304AA05
:1054100005F016FA05F11C0004A90EAA142305F0E4
:105420000BFC00230093044804210EAA1423FEF76A
:1054300081F819B030BD00BFA80A002070B504463D
:10544000FFF727FBB4F8705508B905B970BD55BB17
:10545000274B1B789BB9B4F87425ABB293420AD2A0
:10546000B4F87035591C2344A4F87015772183F8DB
:10547000C0100135F1E70023A4F8723513E020468F
:10548000FFF74DFB0646EBB2B342F4D22046FFF7DE
:1054900046FBB4F870355A1C2344A4F87025013536
:1054A00083F8C000EFE7B4F87035FBB11148FEF7A0
:1054B0009BF80546142D18D9B4F872355A1C2344AC
:1054C000A4F8722593F8C0102046FFF77FFFB4F8C8
:1054D0007225B4F87035143D9A42ADB2EAD3002378
:1054E000A4F87235A4F8703570BD70BD70BD00BFF2
:1054F0006C670020A80A002001EB4101890001F53A
:105500001671B1F5966F8ABF4FF49663A0F87415C3
:10551000A0F87435704708B5FFF799FAD823B0FBA7
:10552000F3F0C0B208BD0146002310B501F8043BFA
:105530000022CA500433142BFAD100F118040023BE
:10554000A3520232B2F5965FF9D141F2D82241F26C
:10555000DC24835241F2DA2200F59751835242F261
:105560000F72025341F2DE241031025300F59754BA
:10557000228041F2E224025341F2E424025341F238
:10558000E822835041F2EC22835241F2EE2283540E
:105590000022CA520233202BFAD141F2103300F517
:1055A0009851C252123100238B520232202AFAD172
:1055B00041F232326321835241F23432815441F25A
:1055C0003832835041F23C32835210BD41F2DA222C
:1055D00000230370835241F2D8226321835241F2A7
:1055E000E822835041F23432815441F2DC2142F20C
:1055F0000F72425241F2DE21425200F597510A8069
:1056000041F2E221425241F2E421425241F210328F
:10561000835241F23232835241F2EC22835241F200
:10562000EE22835441F23832835041F23C328352AD
:1056300070470000F7B54FF47A534CF280150446DA
:105640004FF0000E1F462E461FFA8EF0904226D2D3
:1056500001F10C0034F9100000280ADD36B23FB227
:10566000B042A8BF0646B842B8BF0746B6B2BFB2FE
:1056700009E01BB22DB29842B8BF0346A842A8BFAA
:1056800005469BB2ADB2481D80B2B0F5166F24BF7F
:10569000A1F65B1188B20EF1010E0146D4E73AB2D1
:1056A0002DB202FA86F205FA83F352105B10D1187C
:1056B0004910561AB6B200918FB231B20191244806
:1056C0002449FCF7E1FC41F2343104F59752635C64
:1056D000632B02F10E020CD11146002321F8027F48
:1056E0000233202B4E84F9D141F234330021E154AE
:1056F0000CE004EB430041F2F02501334753DBB2E9
:1057000041F212350F2B46536354EDD841F210315C
:105710000023635241F2323118466352194632F87F
:10572000025F2B44558C0231284420299BB280B261
:1057300002D09BB280B2F2E741F2103243F30B1376
:10574000A35241F2323340F30B10E05203B0F0BDEC
:10575000B032002030CD00082DE9F04FBDF82440D4
:10576000BDF928A0BDF92C9004F1020801341FFAFC
:1057700088F8A4B24FF0000C1FFA8CF5A8F10207CC
:105780009542BFB24ED201F10C05FE1030F815B0B3
:10579000CAEB0B0BC9F100050FFA8BFBAB4507F009
:1057A0000707214D07DA15F807B09F5D27EA0B07B9
:1057B0009F55E6101DE0BBF1000F07DA15F807B0A2
:1057C0009F5D27EA0B079F55E61009E0CB45EF5D8B
:1057D00013F806B04BEA07079F554FEAE40608DACC
:1057E00004F00707EF5D35469E5D26EA07065E5525
:1057F00006E004F0070B9F5D15F80B503D439D55E7
:105800004D1DADB2B5F5166F24BFA1F65B118DB27B
:1058100008F1020802340CF1010C1FFA88F8A4B256
:105820002946A9E7BDE8F08F98CD000841F2D823BA
:105830002DE9F047C35A00EB830304465B685F48D9
:10584000C3F3130386B05840FFF7EEFC032800F2C1
:10585000B08041F2DA230021E05A00F60117BFB20E
:10586000B7F5166F26BFA0F15F0292B23A460D4619
:105870004FF47A564CF2801C02F10C03DFF844819D
:1058800034F9133011F908800FFA8CFC36B29C45BC
:10589000B8BF9C469E42A8BF1E46B8F1010F1FFA32
:1058A0008CFCB6B20AD0B8F1030F05D0B8F1FF3FB7
:1058B00006D003EB430303E003EB4303ED1A00E0E0
:1058C0001D44531D9BB2B3F5166F28BFA2F65B12A1
:1058D00001F1010128BF93B2142901D01A46CBE788
:1058E00041F2E823E3589D4263DD41F23433E35C47
:1058F000632B13D10FFA8CFC0CFA86F641F21033AD
:105900007610E652C6EB0C0C44F63E1606FB0CFC79
:1059100041F232334FEAEC3C24F803C041F2103339
:10592000B7F5166FE35E019341F2323324BFA0F165
:105930005F07BFB20026E35E02930DF110094B46EC
:105940000096204639461422FFF706FF2378B3421B
:1059500014BF4FF0040A4FF0020AB046184BF05C37
:1059600019F806305840FFF759FC01364044052E1F
:105970005FFA80F8F2D1D0451BD841F2E82304F554
:105980009752E55041F2EC230120E65241F2DA232E
:10599000E35A138003F6FB0141F2DC2289B2A752DD
:1059A000B1F5166F41F2DE222ABF653BA152A35228
:1059B00000E0002006B0BDE8F08700BFADB50700ED
:1059C000A0CD00081CCD000838B50446FFF72EFF17
:1059D000B8B141F2EE25635D9BB941F238321E4801
:1059E000A35041F23C320121A352FDF701FE1A48B7
:1059F0000121FDF70BFE41F234336322E25405230B
:105A0000635541F2EE23E25C0AB1013AE254E35CF1
:105A1000012B20D104F5975341F2E2221B8803F6B3
:105A20005F1189B2B1F5166F28BF03F1FF31A152A2
:105A3000591C89B2B1F5166F41F2E42224BFA3F6D6
:105A40005F13A3524FF0010338BFA152237041F2FC
:105A5000EE230022E25438BDA80A002041F23C3275
:105A600010B5825A04466AB141F238302058B0FB72
:105A7000F2F2C2F3072081F8790081F87A20074812
:105A80007B2201E005487922FBF7FAFC41F238322B
:105A90000023A35041F23C32A35210BDB03200208B
:105AA00041F2E223F0B5C25A41F2E42341F2DA2195
:105AB000C35A415A9A42A5B0044607D2914208D32C
:105AC000994206D82046FFF7B1FE02E09142F7D393
:105AD000F8E741F2DA23E25A41F2DE23E35A9A422E
